{
  "_format": "hh-sol-artifact-1",
  "contractName": "SimpleLender",
  "sourceName": "contracts/SimpleLender.sol",
  "abi": [
    {
      "inputs": [
        {
          "internalType": "address",
          "name": "usdc",
          "type": "address"
        },
        {
          "internalType": "address",
          "name": "amm",
          "type": "address"
        },
        {
          "internalType": "uint16",
          "name": "collat",
          "type": "uint16"
        }
      ],
      "stateMutability": "nonpayable",
      "type": "constructor"
    },
    {
      "inputs": [],
      "name": "USDCAddress",
      "outputs": [
        {
          "internalType": "address",
          "name": "",
          "type": "address"
        }
      ],
      "stateMutability": "view",
      "type": "function"
    },
    {
      "inputs": [
        {
          "internalType": "address",
          "name": "",
          "type": "address"
        }
      ],
      "name": "USDCdeposits",
      "outputs": [
        {
          "internalType": "uint256",
          "name": "",
          "type": "uint256"
        }
      ],
      "stateMutability": "view",
      "type": "function"
    },
    {
      "inputs": [],
      "name": "ammAddress",
      "outputs": [
        {
          "internalType": "address",
          "name": "",
          "type": "address"
        }
      ],
      "stateMutability": "view",
      "type": "function"
    },
    {
      "inputs": [
        {
          "internalType": "uint256",
          "name": "amount",
          "type": "uint256"
        }
      ],
      "name": "borrowETH",
      "outputs": [],
      "stateMutability": "nonpayable",
      "type": "function"
    },
    {
      "inputs": [],
      "name": "collateralizationRatio",
      "outputs": [
        {
          "internalType": "uint16",
          "name": "",
          "type": "uint16"
        }
      ],
      "stateMutability": "view",
      "type": "function"
    },
    {
      "inputs": [
        {
          "internalType": "uint256",
          "name": "amount",
          "type": "uint256"
        }
      ],
      "name": "depositUSDC",
      "outputs": [],
      "stateMutability": "nonpayable",
      "type": "function"
    },
    {
      "inputs": [],
      "name": "getPriceUSDCETH",
      "outputs": [
        {
          "internalType": "uint256",
          "name": "",
          "type": "uint256"
        }
      ],
      "stateMutability": "view",
      "type": "function"
    },
    {
      "inputs": [],
      "name": "maxBorrowAmount",
      "outputs": [
        {
          "internalType": "uint256",
          "name": "",
          "type": "uint256"
        }
      ],
      "stateMutability": "view",
      "type": "function"
    },
    {
      "stateMutability": "payable",
      "type": "receive"
    }
  ],
  "bytecode": "0x60806040523480156200001157600080fd5b5060405162000d5338038062000d53833981810160405281019062000037919062000187565b826000806101000a81548173ffffffffffffffffffffffffffffffffffffffff021916908373ffffffffffffffffffffffffffffffffffffffff16021790555081600160006101000a81548173ffffffffffffffffffffffffffffffffffffffff021916908373ffffffffffffffffffffffffffffffffffffffff16021790555080600160146101000a81548161ffff021916908361ffff160217905550505050620001e3565b600080fd5b600073ffffffffffffffffffffffffffffffffffffffff82169050919050565b60006200011082620000e3565b9050919050565b620001228162000103565b81146200012e57600080fd5b50565b600081519050620001428162000117565b92915050565b600061ffff82169050919050565b620001618162000148565b81146200016d57600080fd5b50565b600081519050620001818162000156565b92915050565b600080600060608486031215620001a357620001a2620000de565b5b6000620001b38682870162000131565b9350506020620001c68682870162000131565b9250506040620001d98682870162000170565b9150509250925092565b610b6080620001f36000396000f3fe60806040526004361061007f5760003560e01c8063c40932bb1161004e578063c40932bb14610135578063dcaf9c4414610172578063e93032091461019d578063f688bcfb146101c857610086565b80634837e2041461008b5780635c2d8056146100b65780637b2af625146100e1578063ac911bd81461010a57610086565b3661008657005b600080fd5b34801561009757600080fd5b506100a06101f1565b6040516100ad9190610626565b60405180910390f35b3480156100c257600080fd5b506100cb610217565b6040516100d8919061065a565b60405180910390f35b3480156100ed57600080fd5b50610108600480360381019061010391906106a6565b6102af565b005b34801561011657600080fd5b5061011f6103f8565b60405161012c919061065a565b60405180910390f35b34801561014157600080fd5b5061015c600480360381019061015791906106ff565b61049b565b604051610169919061065a565b60405180910390f35b34801561017e57600080fd5b506101876104b3565b6040516101949190610749565b60405180910390f35b3480156101a957600080fd5b506101b26104c7565b6040516101bf9190610626565b60405180910390f35b3480156101d457600080fd5b506101ef60048036038101906101ea91906106a6565b6104eb565b005b600160009054906101000a900473ffffffffffffffffffffffffffffffffffffffff1681565b6000600160009054906101000a900473ffffffffffffffffffffffffffffffffffffffff1673ffffffffffffffffffffffffffffffffffffffff1663cf4567996040518163ffffffff1660e01b8152600401602060405180830381865afa158015610286573d6000803e3d6000fd5b505050506040513d601f19601f820116820180604052508101906102aa9190610779565b905090565b6102b76103f8565b8111156102f9576040517f08c379a00000000000000000000000000000000000000000000000000000000081526004016102f090610803565b60405180910390fd5b60003373ffffffffffffffffffffffffffffffffffffffff1682600067ffffffffffffffff81111561032e5761032d610823565b5b6040519080825280601f01601f1916602001820160405280156103605781602001600182028036833780820191505090505b5060405161036e91906108cc565b60006040518083038185875af1925050503d80600081146103ab576040519150601f19603f3d011682016040523d82523d6000602084013e6103b0565b606091505b50509050806103f4576040517f08c379a00000000000000000000000000000000000000000000000000000000081526004016103eb9061092f565b60405180910390fd5b5050565b600080600260003373ffffffffffffffffffffffffffffffffffffffff1673ffffffffffffffffffffffffffffffffffffffff1681526020019081526020016000205490506000670de0b6b3a7640000610450610217565b8361045b919061097e565b6104659190610a07565b9050612710600160149054906101000a900461ffff1661ffff168261048a919061097e565b6104949190610a07565b9250505090565b60026020528060005260406000206000915090505481565b600160149054906101000a900461ffff1681565b60008054906101000a900473ffffffffffffffffffffffffffffffffffffffff1681565b60008054906101000a900473ffffffffffffffffffffffffffffffffffffffff1673ffffffffffffffffffffffffffffffffffffffff166323b872dd3330846040518463ffffffff1660e01b815260040161054893929190610a38565b6020604051808303816000875af1158015610567573d6000803e3d6000fd5b505050506040513d601f19601f8201168201806040525081019061058b9190610aa7565b5080600260003373ffffffffffffffffffffffffffffffffffffffff1673ffffffffffffffffffffffffffffffffffffffff16815260200190815260200160002060008282546105db9190610ad4565b9250508190555050565b600073ffffffffffffffffffffffffffffffffffffffff82169050919050565b6000610610826105e5565b9050919050565b61062081610605565b82525050565b600060208201905061063b6000830184610617565b92915050565b6000819050919050565b61065481610641565b82525050565b600060208201905061066f600083018461064b565b92915050565b600080fd5b61068381610641565b811461068e57600080fd5b50565b6000813590506106a08161067a565b92915050565b6000602082840312156106bc576106bb610675565b5b60006106ca84828501610691565b91505092915050565b6106dc81610605565b81146106e757600080fd5b50565b6000813590506106f9816106d3565b92915050565b60006020828403121561071557610714610675565b5b6000610723848285016106ea565b91505092915050565b600061ffff82169050919050565b6107438161072c565b82525050565b600060208201905061075e600083018461073a565b92915050565b6000815190506107738161067a565b92915050565b60006020828403121561078f5761078e610675565b5b600061079d84828501610764565b91505092915050565b600082825260208201905092915050565b7f616d6f756e742065786365656473206d617820626f72726f7720616d6f756e74600082015250565b60006107ed6020836107a6565b91506107f8826107b7565b602082019050919050565b6000602082019050818103600083015261081c816107e0565b9050919050565b7f4e487b7100000000000000000000000000000000000000000000000000000000600052604160045260246000fd5b600081519050919050565b600081905092915050565b60005b8381101561088657808201518184015260208101905061086b565b83811115610895576000848401525b50505050565b60006108a682610852565b6108b0818561085d565b93506108c0818560208601610868565b80840191505092915050565b60006108d8828461089b565b915081905092915050565b7f4661696c656420746f207472616e736665722045544800000000000000000000600082015250565b60006109196016836107a6565b9150610924826108e3565b602082019050919050565b600060208201905081810360008301526109488161090c565b9050919050565b7f4e487b7100000000000000000000000000000000000000000000000000000000600052601160045260246000fd5b600061098982610641565b915061099483610641565b9250817fffffffffffffffffffffffffffffffffffffffffffffffffffffffffffffffff04831182151516156109cd576109cc61094f565b5b828202905092915050565b7f4e487b7100000000000000000000000000000000000000000000000000000000600052601260045260246000fd5b6000610a1282610641565b9150610a1d83610641565b925082610a2d57610a2c6109d8565b5b828204905092915050565b6000606082019050610a4d6000830186610617565b610a5a6020830185610617565b610a67604083018461064b565b949350505050565b60008115159050919050565b610a8481610a6f565b8114610a8f57600080fd5b50565b600081519050610aa181610a7b565b92915050565b600060208284031215610abd57610abc610675565b5b6000610acb84828501610a92565b91505092915050565b6000610adf82610641565b9150610aea83610641565b9250827fffffffffffffffffffffffffffffffffffffffffffffffffffffffffffffffff03821115610b1f57610b1e61094f565b5b82820190509291505056fea26469706673582212205b409c6473edcf73f49f95e1ddb2f09bc5ce59b9aea787e0e9f3f6eabe73ed6a64736f6c634300080d0033",
  "linkReferences": {},
  "deployedLinkReferences": {}
}