{
  "_format": "hh-sol-artifact-1",
  "contractName": "SimpleAMM",
  "sourceName": "contracts/SimpleAMM.sol",
  "abi": [
    {
      "inputs": [
        {
          "internalType": "address",
          "name": "USDC",
          "type": "address"
        }
      ],
      "stateMutability": "nonpayable",
      "type": "constructor"
    },
    {
      "inputs": [],
      "name": "USDCAddress",
      "outputs": [
        {
          "internalType": "address",
          "name": "",
          "type": "address"
        }
      ],
      "stateMutability": "view",
      "type": "function"
    },
    {
      "inputs": [],
      "name": "balanceETH",
      "outputs": [
        {
          "internalType": "uint256",
          "name": "",
          "type": "uint256"
        }
      ],
      "stateMutability": "view",
      "type": "function"
    },
    {
      "inputs": [],
      "name": "balanceUSDC",
      "outputs": [
        {
          "internalType": "uint256",
          "name": "",
          "type": "uint256"
        }
      ],
      "stateMutability": "view",
      "type": "function"
    },
    {
      "inputs": [
        {
          "internalType": "uint256",
          "name": "amountFrom",
          "type": "uint256"
        }
      ],
      "name": "getEstimatedEthForUSDC",
      "outputs": [
        {
          "internalType": "uint256",
          "name": "",
          "type": "uint256"
        }
      ],
      "stateMutability": "view",
      "type": "function"
    },
    {
      "inputs": [
        {
          "internalType": "uint256",
          "name": "amountFrom",
          "type": "uint256"
        }
      ],
      "name": "getEstimatedUSDCForEth",
      "outputs": [
        {
          "internalType": "uint256",
          "name": "",
          "type": "uint256"
        }
      ],
      "stateMutability": "view",
      "type": "function"
    },
    {
      "inputs": [],
      "name": "priceETHUSDC",
      "outputs": [
        {
          "internalType": "uint256",
          "name": "",
          "type": "uint256"
        }
      ],
      "stateMutability": "view",
      "type": "function"
    },
    {
      "inputs": [],
      "name": "priceUSDCETH",
      "outputs": [
        {
          "internalType": "uint256",
          "name": "",
          "type": "uint256"
        }
      ],
      "stateMutability": "view",
      "type": "function"
    },
    {
      "inputs": [
        {
          "internalType": "address",
          "name": "fromToken",
          "type": "address"
        },
        {
          "internalType": "uint256",
          "name": "amountFrom",
          "type": "uint256"
        }
      ],
      "name": "swap",
      "outputs": [
        {
          "internalType": "uint256",
          "name": "",
          "type": "uint256"
        }
      ],
      "stateMutability": "payable",
      "type": "function"
    },
    {
      "stateMutability": "payable",
      "type": "receive"
    }
  ],
  "bytecode": "0x608060405234801561001057600080fd5b50604051610dac380380610dac833981810160405281019061003291906100db565b806000806101000a81548173ffffffffffffffffffffffffffffffffffffffff021916908373ffffffffffffffffffffffffffffffffffffffff16021790555050610108565b600080fd5b600073ffffffffffffffffffffffffffffffffffffffff82169050919050565b60006100a88261007d565b9050919050565b6100b88161009d565b81146100c357600080fd5b50565b6000815190506100d5816100af565b92915050565b6000602082840312156100f1576100f0610078565b5b60006100ff848285016100c6565b91505092915050565b610c95806101176000396000f3fe60806040526004361061007f5760003560e01c8063cf4567991161004e578063cf4567991461015b578063d004f0f714610186578063e9303209146101b6578063ecbdbb32146101e157610086565b80632804ff251461008b5780637d17633b146100b65780638504beb7146100f35780638dd0f7fd1461013057610086565b3661008657005b600080fd5b34801561009757600080fd5b506100a061020c565b6040516100ad9190610709565b60405180910390f35b3480156100c257600080fd5b506100dd60048036038101906100d89190610755565b610240565b6040516100ea9190610709565b60405180910390f35b3480156100ff57600080fd5b5061011a60048036038101906101159190610755565b610279565b6040516101279190610709565b60405180910390f35b34801561013c57600080fd5b506101456102b2565b6040516101529190610709565b60405180910390f35b34801561016757600080fd5b50610170610354565b60405161017d9190610709565b60405180910390f35b6101a0600480360381019061019b91906107e0565b610388565b6040516101ad9190610709565b60405180910390f35b3480156101c257600080fd5b506101cb6106c4565b6040516101d8919061082f565b60405180910390f35b3480156101ed57600080fd5b506101f66106e8565b6040516102039190610709565b60405180910390f35b6000670de0b6b3a764000061021f6106e8565b6102276102b2565b61023191906108a8565b61023b91906108d9565b905090565b60008161024b6106e8565b6102559190610933565b8261025e6102b2565b61026891906108d9565b61027291906108a8565b9050919050565b6000816102846102b2565b61028e9190610933565b826102976106e8565b6102a191906108d9565b6102ab91906108a8565b9050919050565b60008060009054906101000a900473ffffffffffffffffffffffffffffffffffffffff1673ffffffffffffffffffffffffffffffffffffffff166370a08231306040518263ffffffff1660e01b815260040161030e919061082f565b602060405180830381865afa15801561032b573d6000803e3d6000fd5b505050506040513d601f19601f8201168201806040525081019061034f919061099e565b905090565b600061035e6102b2565b670de0b6b3a764000061036f6106e8565b61037991906108d9565b61038391906108a8565b905090565b6000806103936106e8565b9050600061039f6102b2565b905060008060009054906101000a900473ffffffffffffffffffffffffffffffffffffffff1673ffffffffffffffffffffffffffffffffffffffff168673ffffffffffffffffffffffffffffffffffffffff16036105bd5784826104039190610933565b858461040f91906108d9565b61041991906108a8565b905060008054906101000a900473ffffffffffffffffffffffffffffffffffffffff1673ffffffffffffffffffffffffffffffffffffffff166323b872dd3330886040518463ffffffff1660e01b8152600401610478939291906109cb565b6020604051808303816000875af1158015610497573d6000803e3d6000fd5b505050506040513d601f19601f820116820180604052508101906104bb9190610a3a565b5060003373ffffffffffffffffffffffffffffffffffffffff1682600067ffffffffffffffff8111156104f1576104f0610a67565b5b6040519080825280601f01601f1916602001820160405280156105235781602001600182028036833780820191505090505b506040516105319190610b10565b60006040518083038185875af1925050503d806000811461056e576040519150601f19603f3d011682016040523d82523d6000602084013e610573565b606091505b50509050806105b7576040517f08c379a00000000000000000000000000000000000000000000000000000000081526004016105ae90610b84565b60405180910390fd5b506106b8565b8285836105ca91906108d9565b6105d491906108a8565b9050843414610618576040517f08c379a000000000000000000000000000000000000000000000000000000000815260040161060f90610c16565b60405180910390fd5b60008054906101000a900473ffffffffffffffffffffffffffffffffffffffff1673ffffffffffffffffffffffffffffffffffffffff1663a9059cbb33836040518363ffffffff1660e01b8152600401610673929190610c36565b6020604051808303816000875af1158015610692573d6000803e3d6000fd5b505050506040513d601f19601f820116820180604052508101906106b69190610a3a565b505b80935050505092915050565b60008054906101000a900473ffffffffffffffffffffffffffffffffffffffff1681565b600047905090565b6000819050919050565b610703816106f0565b82525050565b600060208201905061071e60008301846106fa565b92915050565b600080fd5b610732816106f0565b811461073d57600080fd5b50565b60008135905061074f81610729565b92915050565b60006020828403121561076b5761076a610724565b5b600061077984828501610740565b91505092915050565b600073ffffffffffffffffffffffffffffffffffffffff82169050919050565b60006107ad82610782565b9050919050565b6107bd816107a2565b81146107c857600080fd5b50565b6000813590506107da816107b4565b92915050565b600080604083850312156107f7576107f6610724565b5b6000610805858286016107cb565b925050602061081685828601610740565b9150509250929050565b610829816107a2565b82525050565b60006020820190506108446000830184610820565b92915050565b7f4e487b7100000000000000000000000000000000000000000000000000000000600052601260045260246000fd5b7f4e487b7100000000000000000000000000000000000000000000000000000000600052601160045260246000fd5b60006108b3826106f0565b91506108be836106f0565b9250826108ce576108cd61084a565b5b828204905092915050565b60006108e4826106f0565b91506108ef836106f0565b9250817fffffffffffffffffffffffffffffffffffffffffffffffffffffffffffffffff048311821515161561092857610927610879565b5b828202905092915050565b600061093e826106f0565b9150610949836106f0565b9250827fffffffffffffffffffffffffffffffffffffffffffffffffffffffffffffffff0382111561097e5761097d610879565b5b828201905092915050565b60008151905061099881610729565b92915050565b6000602082840312156109b4576109b3610724565b5b60006109c284828501610989565b91505092915050565b60006060820190506109e06000830186610820565b6109ed6020830185610820565b6109fa60408301846106fa565b949350505050565b60008115159050919050565b610a1781610a02565b8114610a2257600080fd5b50565b600081519050610a3481610a0e565b92915050565b600060208284031215610a5057610a4f610724565b5b6000610a5e84828501610a25565b91505092915050565b7f4e487b7100000000000000000000000000000000000000000000000000000000600052604160045260246000fd5b600081519050919050565b600081905092915050565b60005b83811015610aca578082015181840152602081019050610aaf565b83811115610ad9576000848401525b50505050565b6000610aea82610a96565b610af48185610aa1565b9350610b04818560208601610aac565b80840191505092915050565b6000610b1c8284610adf565b915081905092915050565b600082825260208201905092915050565b7f4661696c656420746f207472616e736665722045544800000000000000000000600082015250565b6000610b6e601683610b27565b9150610b7982610b38565b602082019050919050565b60006020820190508181036000830152610b9d81610b61565b9050919050565b7f616d6f756e7446726f6d20646f6573206e6f74206d617463682065746820736560008201527f6e74000000000000000000000000000000000000000000000000000000000000602082015250565b6000610c00602283610b27565b9150610c0b82610ba4565b604082019050919050565b60006020820190508181036000830152610c2f81610bf3565b9050919050565b6000604082019050610c4b6000830185610820565b610c5860208301846106fa565b939250505056fea2646970667358221220e25c6776b8bed0802414f262d8832e0c82557e6445524339dfabeca7de4d03a164736f6c634300080d0033",
  "linkReferences": {},
  "deployedLinkReferences": {}
}