{
  "_format": "hh-sol-artifact-1",
  "contractName": "LendingProtocol",
  "sourceName": "contracts/LendingProtocol.sol",
  "abi": [
    {
      "inputs": [
        {
          "internalType": "address",
          "name": "_collateral",
          "type": "address"
        },
        {
          "internalType": "address",
          "name": "_debt",
          "type": "address"
        },
        {
          "internalType": "address",
          "name": "_oracle",
          "type": "address"
        }
      ],
      "stateMutability": "nonpayable",
      "type": "constructor"
    },
    {
      "inputs": [],
      "name": "LOAN_TO_VALUE",
      "outputs": [
        {
          "internalType": "uint256",
          "name": "",
          "type": "uint256"
        }
      ],
      "stateMutability": "view",
      "type": "function"
    },
    {
      "inputs": [
        {
          "internalType": "uint256",
          "name": "_borrowAmount",
          "type": "uint256"
        }
      ],
      "name": "borrow",
      "outputs": [],
      "stateMutability": "nonpayable",
      "type": "function"
    },
    {
      "inputs": [
        {
          "internalType": "address",
          "name": "",
          "type": "address"
        }
      ],
      "name": "collateralBalances",
      "outputs": [
        {
          "internalType": "uint256",
          "name": "",
          "type": "uint256"
        }
      ],
      "stateMutability": "view",
      "type": "function"
    },
    {
      "inputs": [],
      "name": "collateralToken",
      "outputs": [
        {
          "internalType": "contract IERC20",
          "name": "",
          "type": "address"
        }
      ],
      "stateMutability": "view",
      "type": "function"
    },
    {
      "inputs": [],
      "name": "debtToken",
      "outputs": [
        {
          "internalType": "contract IERC20",
          "name": "",
          "type": "address"
        }
      ],
      "stateMutability": "view",
      "type": "function"
    },
    {
      "inputs": [
        {
          "internalType": "uint256",
          "name": "_amount",
          "type": "uint256"
        }
      ],
      "name": "deposit",
      "outputs": [],
      "stateMutability": "nonpayable",
      "type": "function"
    },
    {
      "inputs": [
        {
          "internalType": "address",
          "name": "_user",
          "type": "address"
        }
      ],
      "name": "getCollateralValueInUsd",
      "outputs": [
        {
          "internalType": "uint256",
          "name": "",
          "type": "uint256"
        }
      ],
      "stateMutability": "view",
      "type": "function"
    },
    {
      "inputs": [],
      "name": "priceOracle",
      "outputs": [
        {
          "internalType": "contract IUniswapV2Pair",
          "name": "",
          "type": "address"
        }
      ],
      "stateMutability": "view",
      "type": "function"
    }
  ],
  "bytecode": "0x60e060405234801561001057600080fd5b50604051610c8f380380610c8f83398181016040528101906100329190610139565b8273ffffffffffffffffffffffffffffffffffffffff1660808173ffffffffffffffffffffffffffffffffffffffff16815250508173ffffffffffffffffffffffffffffffffffffffff1660a08173ffffffffffffffffffffffffffffffffffffffff16815250508073ffffffffffffffffffffffffffffffffffffffff1660c08173ffffffffffffffffffffffffffffffffffffffff168152505050505061018c565b600080fd5b600073ffffffffffffffffffffffffffffffffffffffff82169050919050565b6000610106826100db565b9050919050565b610116816100fb565b811461012157600080fd5b50565b6000815190506101338161010d565b92915050565b600080600060608486031215610152576101516100d6565b5b600061016086828701610124565b935050602061017186828701610124565b925050604061018286828701610124565b9150509250925092565b60805160a05160c051610abf6101d06000396000818161019f01526102390152600081816104c5015261056901526000818161033b01526103b40152610abf6000f3fe608060405234801561001057600080fd5b50600436106100885760003560e01c8063b2016bd41161005b578063b2016bd414610129578063b6b55f2514610147578063c5ebeaec14610163578063f8d898981461017f57610088565b80632630c12f1461008d57806329bc969d146100ab578063788c047a146100db5780637b702c13146100f9575b600080fd5b61009561019d565b6040516100a2919061060a565b60405180910390f35b6100c560048036038101906100c09190610668565b6101c1565b6040516100d291906106ae565b60405180910390f35b6100e36101d9565b6040516100f091906106ae565b60405180910390f35b610113600480360381019061010e9190610668565b6101de565b60405161012091906106ae565b60405180910390f35b610131610339565b60405161013e91906106ea565b60405180910390f35b610161600480360381019061015c9190610731565b61035d565b005b61017d60048036038101906101789190610731565b610456565b005b610187610567565b60405161019491906106ea565b60405180910390f35b7f000000000000000000000000000000000000000000000000000000000000000081565b60006020528060005260406000206000915090505481565b604681565b6000806000808473ffffffffffffffffffffffffffffffffffffffff1673ffffffffffffffffffffffffffffffffffffffff16815260200190815260200160002054905060008103610234576000915050610334565b6000807f000000000000000000000000000000000000000000000000000000000000000073ffffffffffffffffffffffffffffffffffffffff16630902f1ac6040518163ffffffff1660e01b8152600401606060405180830381865afa1580156102a2573d6000803e3d6000fd5b505050506040513d601f19601f820116820180604052508101906102c691906107e0565b50915091506000816dffffffffffffffffffffffffffff16670de0b6b3a7640000846dffffffffffffffffffffffffffff166103029190610862565b61030c91906108d3565b9050670de0b6b3a764000081856103239190610862565b61032d91906108d3565b9450505050505b919050565b7f000000000000000000000000000000000000000000000000000000000000000081565b806000803373ffffffffffffffffffffffffffffffffffffffff1673ffffffffffffffffffffffffffffffffffffffff16815260200190815260200160002060008282546103ab9190610904565b925050819055507f000000000000000000000000000000000000000000000000000000000000000073ffffffffffffffffffffffffffffffffffffffff166323b872dd3330846040518463ffffffff1660e01b815260040161040f93929190610947565b6020604051808303816000875af115801561042e573d6000803e3d6000fd5b505050506040513d601f19601f8201168201806040525081019061045291906109b6565b5050565b6000610461336101de565b9050600060646046836104749190610862565b61047e91906108d3565b9050808311156104c3576040517f08c379a00000000000000000000000000000000000000000000000000000000081526004016104ba90610a40565b60405180910390fd5b7f000000000000000000000000000000000000000000000000000000000000000073ffffffffffffffffffffffffffffffffffffffff1663a9059cbb33856040518363ffffffff1660e01b815260040161051e929190610a60565b6020604051808303816000875af115801561053d573d6000803e3d6000fd5b505050506040513d601f19601f8201168201806040525081019061056191906109b6565b50505050565b7f000000000000000000000000000000000000000000000000000000000000000081565b600073ffffffffffffffffffffffffffffffffffffffff82169050919050565b6000819050919050565b60006105d06105cb6105c68461058b565b6105ab565b61058b565b9050919050565b60006105e2826105b5565b9050919050565b60006105f4826105d7565b9050919050565b610604816105e9565b82525050565b600060208201905061061f60008301846105fb565b92915050565b600080fd5b60006106358261058b565b9050919050565b6106458161062a565b811461065057600080fd5b50565b6000813590506106628161063c565b92915050565b60006020828403121561067e5761067d610625565b5b600061068c84828501610653565b91505092915050565b6000819050919050565b6106a881610695565b82525050565b60006020820190506106c3600083018461069f565b92915050565b60006106d4826105d7565b9050919050565b6106e4816106c9565b82525050565b60006020820190506106ff60008301846106db565b92915050565b61070e81610695565b811461071957600080fd5b50565b60008135905061072b81610705565b92915050565b60006020828403121561074757610746610625565b5b60006107558482850161071c565b91505092915050565b60006dffffffffffffffffffffffffffff82169050919050565b6107818161075e565b811461078c57600080fd5b50565b60008151905061079e81610778565b92915050565b600063ffffffff82169050919050565b6107bd816107a4565b81146107c857600080fd5b50565b6000815190506107da816107b4565b92915050565b6000806000606084860312156107f9576107f8610625565b5b60006108078682870161078f565b93505060206108188682870161078f565b9250506040610829868287016107cb565b9150509250925092565b7f4e487b7100000000000000000000000000000000000000000000000000000000600052601160045260246000fd5b600061086d82610695565b915061087883610695565b925082820261088681610695565b9150828204841483151761089d5761089c610833565b5b5092915050565b7f4e487b7100000000000000000000000000000000000000000000000000000000600052601260045260246000fd5b60006108de82610695565b91506108e983610695565b9250826108f9576108f86108a4565b5b828204905092915050565b600061090f82610695565b915061091a83610695565b925082820190508082111561093257610931610833565b5b92915050565b6109418161062a565b82525050565b600060608201905061095c6000830186610938565b6109696020830185610938565b610976604083018461069f565b949350505050565b60008115159050919050565b6109938161097e565b811461099e57600080fd5b50565b6000815190506109b08161098a565b92915050565b6000602082840312156109cc576109cb610625565b5b60006109da848285016109a1565b91505092915050565b600082825260208201905092915050565b7f426f72726f7720616d6f756e742065786365656473206d6178204c5456000000600082015250565b6000610a2a601d836109e3565b9150610a35826109f4565b602082019050919050565b60006020820190508181036000830152610a5981610a1d565b9050919050565b6000604082019050610a756000830185610938565b610a82602083018461069f565b939250505056fea26469706673582212202be0deec881c98886d6e0241141d0e8456b31067971172f934597c87dd34e1fd64736f6c63430008140033",
  "linkReferences": {},
  "deployedLinkReferences": {}
}