{
  "_format": "hh-sol-artifact-1",
  "contractName": "Attacker",
  "sourceName": "contracts/Attacker.sol",
  "abi": [
    {
      "inputs": [
        {
          "internalType": "address",
          "name": "amm",
          "type": "address"
        },
        {
          "internalType": "address",
          "name": "usdc",
          "type": "address"
        },
        {
          "internalType": "address",
          "name": "lender",
          "type": "address"
        }
      ],
      "name": "executeAttack",
      "outputs": [],
      "stateMutability": "payable",
      "type": "function"
    },
    {
      "stateMutability": "payable",
      "type": "receive"
    }
  ],
  "bytecode": "0x608060405234801561001057600080fd5b506107a3806100206000396000f3fe6080604052600436106100225760003560e01c80634239399f1461002e57610029565b3661002957005b600080fd5b61004860048036038101906100439190610447565b61004a565b005b671bc16d674ec80000471015610095576040517f08c379a000000000000000000000000000000000000000000000000000000000815260040161008c906104f7565b60405180910390fd5b60008373ffffffffffffffffffffffffffffffffffffffff1663d004f0f7346000346040518463ffffffff1660e01b81526004016100d492919061053f565b60206040518083038185885af11580156100f2573d6000803e3d6000fd5b50505050506040513d601f19601f820116820180604052508101906101179190610594565b90508273ffffffffffffffffffffffffffffffffffffffff1663095ea7b383836040518363ffffffff1660e01b815260040161015492919061053f565b6020604051808303816000875af1158015610173573d6000803e3d6000fd5b505050506040513d601f19601f8201168201806040525081019061019791906105f9565b508173ffffffffffffffffffffffffffffffffffffffff1663f688bcfb826040518263ffffffff1660e01b81526004016101d19190610626565b600060405180830381600087803b1580156101eb57600080fd5b505af11580156101ff573d6000803e3d6000fd5b5050505060008273ffffffffffffffffffffffffffffffffffffffff1663ac911bd86040518163ffffffff1660e01b8152600401602060405180830381865afa158015610250573d6000803e3d6000fd5b505050506040513d601f19601f820116820180604052508101906102749190610594565b90508273ffffffffffffffffffffffffffffffffffffffff16637b2af625826040518263ffffffff1660e01b81526004016102af9190610626565b600060405180830381600087803b1580156102c957600080fd5b505af11580156102dd573d6000803e3d6000fd5b5050505060003373ffffffffffffffffffffffffffffffffffffffff1634600067ffffffffffffffff81111561031657610315610641565b5b6040519080825280601f01601f1916602001820160405280156103485781602001600182028036833780820191505090505b5060405161035691906106ea565b60006040518083038185875af1925050503d8060008114610393576040519150601f19603f3d011682016040523d82523d6000602084013e610398565b606091505b50509050806103dc576040517f08c379a00000000000000000000000000000000000000000000000000000000081526004016103d39061074d565b60405180910390fd5b505050505050565b600080fd5b600073ffffffffffffffffffffffffffffffffffffffff82169050919050565b6000610414826103e9565b9050919050565b61042481610409565b811461042f57600080fd5b50565b6000813590506104418161041b565b92915050565b6000806000606084860312156104605761045f6103e4565b5b600061046e86828701610432565b935050602061047f86828701610432565b925050604061049086828701610432565b9150509250925092565b600082825260208201905092915050565b7f6e6f7420656e6f7567682066756e647300000000000000000000000000000000600082015250565b60006104e160108361049a565b91506104ec826104ab565b602082019050919050565b60006020820190508181036000830152610510816104d4565b9050919050565b61052081610409565b82525050565b6000819050919050565b61053981610526565b82525050565b60006040820190506105546000830185610517565b6105616020830184610530565b9392505050565b61057181610526565b811461057c57600080fd5b50565b60008151905061058e81610568565b92915050565b6000602082840312156105aa576105a96103e4565b5b60006105b88482850161057f565b91505092915050565b60008115159050919050565b6105d6816105c1565b81146105e157600080fd5b50565b6000815190506105f3816105cd565b92915050565b60006020828403121561060f5761060e6103e4565b5b600061061d848285016105e4565b91505092915050565b600060208201905061063b6000830184610530565b92915050565b7f4e487b7100000000000000000000000000000000000000000000000000000000600052604160045260246000fd5b600081519050919050565b600081905092915050565b60005b838110156106a4578082015181840152602081019050610689565b838111156106b3576000848401525b50505050565b60006106c482610670565b6106ce818561067b565b93506106de818560208601610686565b80840191505092915050565b60006106f682846106b9565b915081905092915050565b7f4661696c656420746f207472616e736665722045544800000000000000000000600082015250565b600061073760168361049a565b915061074282610701565b602082019050919050565b600060208201905081810360008301526107668161072a565b905091905056fea26469706673582212203fcd6497cda850330c5094a4c0724800223f16c103bda7daded0e76b9076c63e64736f6c634300080d0033",
  "linkReferences": {},
  "deployedLinkReferences": {}
}